00000000105528010  Rua Manuel Dias de Oliveira                                                                                                                           000011111000001111SP
00000000203311000  Rua Apucarana - até 999/1000                                                                                                                          000248428332323990SP
00000000303477010  RUA REFINARIA MATARIPE                                                                                                                                239023782032932983SP
